:1000000010C02AC029C028C027C026C025C024C0CF
:1000100023C022C021C020C01FC01EC01DC00000C0
:10002000030011241FBECFE5D1E0DEBFCDBF10E03D
:10003000A0E6B0E0E4E1F8E002C005900D92A03B3C
:10004000B107D9F721E0A0EBB0E001C01D92AC33BD
:10005000B207E1F7F3D0DCC3D3CFCF93DF939FB7E1
:10006000F894C09AB89AC09808B2E3E0C5E1DC2FD2
:10007000DA95F1F780FB00F8E695879508BAB9F7AD
:100080009FBFDF91CF910895CF93DF93EC018991CA
:10009000882311F0E2DFFBCFDF91CF910895CF935A
:1000A000DF93CDB7DEB761970FB6F894DEBF0FBE12
:1000B000CDBF242F30E0AE014F5F5F4F3BD3CE0169
:1000C0000196E2DF61960FB6F894DEBF0FBECDBF9A
:1000D000DF91CF910895CF93DF93FC018491EF01DD
:1000E0002196882319F0B9DFFE01F8CFDF91CF9177
:1000F000089543E050E060E070E086E391E063C380
:1001000043E050E060E070E086E391E06BC343E0E1
:1001100050E06EE170E086E391E003C3F8DFF0CFDA
:10012000E8DFE6E3F1E083E08E0F91919F3F19F461
:100130008E13FBCFF3CF089587B1836087B9369ACA
:100140003699FECF84B195B10895E091C00021E0C9
:100150002E0F2093C000E770F0E0EE0FFF1FE05578
:10016000FF4F91838083E0EBF0E080E090E0DC01E2
:1001700021913191820F931FA11DB11D20E0E03C20
:10018000F207B1F723E0B695A795979587952A953D
:10019000D1F790933501809334010895CF93C82F00
:1001A0001092310110923301809133018C1709F4C0
:1001B00043C0809131018F5F8093310180E690E0F0
:1001C00063DF6091310170E080E090E04AE067DF3A
:1001D000B3DF84B195B1B9DF8EE690E055DF609171
:1001E00034017091350180E090E04AE058DF86E705
:1001F00090E04ADF809131018C33A0F01092310100
:10020000909133019F5F909333018AE790E03CDF48
:100210006091330170E080E090E04AE040DF86E7E3
:1002200090E032DF2FEF89E698E121508040904046
:10023000E1F700C00000B8CFCF910895C49ABA9AF0
:10024000C29A6EDF88E890E01FDFB49B0CC0C298B2
:100250008AB582608ABD83B7856083BF8BE989BD1B
:1002600020E131E029C05ADF1092320194E0809100
:1002700032018A3060F788B3892788BB2FEF34E3D7
:100280004CE0215030404040E1F700C00000809138
:1002900032018F5F80933201EACF08B604FE06C0B8
:1002A00001969093C2008093C10028BF80913901CC
:1002B000811134C0B49B09C08091C1009091C200EB
:1002C0008D3D45E0940748F32EC03093390180916D
:1002D00036019091370101968F30910529F0909366
:1002E00037018093360104C0109237011092360115
:1002F000C29A5FEF81EE94E0515080409040E1F768
:1003000000C00000C2984FEF59E688E141505040CC
:100310008040E1F700C00000C29ACECFB49BCCCFA2
:1003200010923901C9CF1092C2001092C1001092F0
:10033000320194E0809132018A3090F488B38927A9
:1003400088BB5FEF82E527E0515080402040E1F715
:1003500000C00000809132018F5F80933201EACFAC
:10036000C29820E131E08091C1009091C2008D3DA2
:1003700045E0940788F508B604FE06C00196909300
:10038000C2008093C10028BF8091390181111FC034
:10039000B499E9CF30933901809138018F5F809310
:1003A0003801C29A4FEF51EE84E0415050408040F6
:1003B000E1F700C00000C2989FEF49E658E1915074
:1003C00040405040E1F700C00000C29ACCCFB49B3F
:1003D000CACF10923901C7CFC29A1092320194E06D
:1003E000809132018A3090F488B3892788BB5FEF0F
:1003F00082E527E0515080402040E1F700C0000036
:10040000809132018F5F80933201EACFC29A78DE09
:10041000609136017091370180E090E04AE03FDE64
:1004200087E790E031DE6091380170E080E090E095
:100430004AE035DE87E790E027DE80E990E024DEC1
:100440003FEF49EB5BED315040405040E1F700C0D9
:100450000000109232018091320190E0209136012B
:100460003091370182179307D0F4C2988FEF99E645
:1004700028E1815090402040E1F700C00000C29A7E
:100480003FEF49E658E1315040405040E1F700C0AD
:100490000000809132018F5F80933201DCCF8FEFBB
:1004A00091E12AE7815090402040E1F700C0000030
:1004B0001092320190913201809138019817D0F456
:1004C000C2983FEF49E658E1315040405040E1F7D3
:1004D00000C00000C29A8FEF99E628E18150904059
:1004E0002040E1F700C00000809132018F5F8093CF
:1004F0003201E0CFB99ABB98379A339A86B18760B8
:1005000086B93FEF49E658E1315040405040E1F7AD
:1005100000C00000C19A80E541DEC9E0D8E017E0E4
:1005200006E085E0F82E94E0E92E23E0D22E32E0BA
:10053000C32EBB24B394809131018F5F809331012E
:1005400080913A018F5F80933A018BE990E09CDDC6
:100550006091310170E080E090E04AE0A0DDECDDE8
:1005600081EA90E091DD64B175B180E090E04AE00D
:1005700096DD84B195B1E9DD8EE690E085DD609190
:1005800034017091350180E090E04AE088DD86E733
:1005900090E07ADD809131018C33A0F0109231012E
:1005A000809133018F5F809333018AEA90E06CDDA4
:1005B0006091330170E080E090E04AE070DD86E712
:1005C00090E062DD80913A018A3008F459C01092BF
:1005D0003A018091340190913501909330018093DC
:1005E0002F019C01215432402A30310510F4B09281
:1005F0003B019C012B5432402B30310510F4C0924A
:100600003B019C01265532402A30310510F4D0922E
:100610003B019C01205632402A30310510F4E09213
:100620003B019C012A5632402A30310510F4F092E9
:100630003B019C01245732402A30310510F40093CD
:100640003B019C012E5732402930310510F41093A4
:100650003B019C01275832402A30310510F4D093D9
:100660003B019C01215932402930310518F4C093D7
:100670003B0106C08A39924018F08AE080933B0122
:1006800080913B01882339F0C29880913B018150D1
:1006900080933B0101C0C29A80913601909137014D
:1006A0006AE070E02DD0845D9D4F2091340130913F
:1006B00035012817390718F0C19A83E06FDD909152
:1006C00038012091360130913701A901491B5109A8
:1006D000CA016AE070E014D0845D9D4F209134011E
:1006E000309135018217930708F0C1985FEF89E6D2
:1006F00098E1515080409040E1F700C000001BCFCE
:100700000024552704C0080E591F880F991F009711
:1007100029F076956795B8F37105B9F7802D952F77
:100720000895FB01DC0102C005900D92415050403C
:10073000D8F708952532310518F4223008F004C0A6
:10074000FA011082CA010895BB272A3051F4992377
:1007500042F4BDE290958095709561957F4F8F4FE3
:100760009F4F01C0BB27FA01A62F621771058105B3
:100770009105330B30FB66F0AA27660F771F881FA1
:10078000991FAA1FA21710F0A21B63953850A9F752
:10079000A05DAA3308F0A95DA19336F7B111B1931A
:1007A0001082CA0100C0DC01FC01672F7191772320
:1007B000E1F7329704C07C916D9370836291AE171C
:1007C000BF07C8F30895DC01862FE82FE199FECF1B
:1007D0001FBA05C0EEBBE09AE3950DB20D924150F1
:1007E000C8F70895DC01862F02C02D9104D0415036
:1007F000E0F70895262FE199FECF1CBA1FBA8EBBF1
:100800002DBB0FB6F894E29AE19A0FBE01960895B7
:04081000F894FFCF8A
:1008140073206D696E75746E696B613A20002020D7
:100824002053723A20000A0A0D006D206D696E751E
:10083400746E696B613A2000576974616A0D0A002D
:100844004B6F6E6965632E0D0A20007365633A2051
:10085400002020204144433A20006D696E3A200074
:00000001FF
